:1000000012308A004E2A00000A108A100A11820754
:1000100028340C34013406340C00452CC322D32779
:1000200020224510D4224D2845290001C220CA278C
:100030002027492B4526A020C72A41100001C620B1
:100040004C264110C422A0294527D3275210000175
:10005000D432721DA027462320283A102532A0351D
:100060005700D432721D2519E412E32120283A10DA
:100070002532A0355700C839A022EE316537641DFE
:10008000A027462320100001C839A022EE31653791
:10009000641DA0123019641D251832320001C839C0
:1000A000A020F030E730641DA02746232010000177
:1000B000C839A020F030E730641DA0123019641D4B
:1000C000251832320001CC34ED34F43220286F3A56
:1000D0003A102532A035570041393A1042316110AB
:1000E00041313A10D6306C3B00014135F539F432DC
:1000F00020326510C837F230201000014135F53943
:10010000F43220326510C837F2302010000141353A
:10011000F539F43220326510CD34EE3AF43700016F
:100120004C308400831300080319A3280630F8001C
:10013000F701F70B9928F80B98287B30F700F70B9D
:100140009F28800B962808005318A8280812A92871
:100150000816831608128312D318B0288713B12803
:100160008717A01320088316870083125319BA2813
:100170000713BB2807172013200883168700831254
:10018000D319C4288712C5288716A0122008831601
:10019000870000008812831288160230F700F70BE0
:1001A000CF28D228000083168812831288120800F4
:1001B000D40183168812831288160000831608164D
:1001C00083125410081A5414A017200883168700AD
:1001D0008312D410871BD41420172008831687009D
:1001E00083125411071B5415A0162008831687008C
:1001F0008312D411871AD415831688128312881299
:100200005408F80008008316881383128813831695
:100210000813831208170000D8207808D300D820CC
:100220007808D200530EF700F030F7057708520433
:10023000F8007808D200D21B0729D0080319252915
:10024000831688138312881729298316881383122B
:100250008813000083160813831208130000831606
:10026000881283128812510ED2000F30D205520824
:10027000D300A42051080F39D200D300A4200800D5
:100280000830F80000008711A011200883168700AD
:1002900000008312C20D0712031C542920162008E7
:1002A000831687005829831220122008831687009E
:1002B00000008312A0152008831687008312871D73
:1002C0005F29F80B422900008711A011200883162E
:1002D0008700000083122016200883168700000084
:1002E00000008312A0152008831687008312871D43
:1002F0007729F8010000071A78148711A011200847
:1003000083168700831207122012200883168700A5
:10031000831208000830C2007708C30020162008A6
:100320008316870000008312A0152008831687001B
:100330008312871D9929071A0314071E0310F80D4D
:100340000000A01120088316870083128711C20BBA
:100350008E292016200883168700000083120712BA
:1003600043080319B8292012200883168700831236
:100370000000A0152008831687008312871DBE2960
:1003800000008711A0112008831687000000831247
:1003900007122012200883168700831208004208E3
:1003A000C3000310C30C7830C305430CF700F70CEF
:1003B0003F30F70577084307C40042080F39440768
:1003C000F80008004108C200C3014208093C0318B4
:1003D000EE290A30C2021030C307F1294208C307D0
:1003E000F229E5294308F80008004D0BF829FB29FC
:1003F0004030CE00FC29CE0101304C02CE074E0821
:100400008038CF00D0014F08D100032108004B08ED
:100410000C3A0319122A063A03191A2A023A031946
:10042000202A252AD0010130D10003210230CC003E
:1004300090202A2A0130CC000230CD00F5212A2A52
:10044000D0011030D10003212A2A0130D0004B08FE
:10045000D100032108000B08BE008B13831603177D
:100460008C170C140000000083120C087F3903194C
:10047000722A0313BF0003170D080313C0000317EC
:100480000F080313C1003F08CB00072240080317E1
:100490008D000313410803178F0083168C170C146B
:1004A0000000000083120C0D0E0D7F390319722A13
:1004B0000313BF0003170D080313C00003170F0831
:1004C0000313C1003F08CB000722400803178D002B
:1004D0000313410803178F008D0A03198F0A0313B2
:1004E0002E2A03170313BE1B8B1708004008FB3E80
:1004F0000318E12A053EE52A83168610831286102A
:100500008316061183120611831686118312861133
:100510008316061083120610E12A831686108312B2
:100520008614831606118312061183168611831210
:1005300086118316061083120610E12A8316861090
:1005400083128610831606118312061583168611F0
:10055000831286158316061083120610E12A83166D
:1005600086108312861083160611831206158316D1
:100570008611831286158316061083120614E12A4B
:1005800083168610831286148316061183120615AD
:10059000831686118312861583160610831206149D
:1005A000E12A8316861083128610831606118312A1
:1005B0000611831686118312861183160610831284
:1005C00006104008B600640008000A108A140A11D8
:1005D00082077C2A8D2A9E2AAF2AC02AC0133F3068
:1005E000BE05201620088316870000008312A01580
:1005F00020088316870000008312071220122008AB
:1006000083168700000083128711A011200883162B
:100610008700D0308312C2004021C201402140082F
:10062000C100E2217808C100C20040213F08C1009A
:10063000E2217808C100C20040213E08C100E22149
:100640007808C100C20040212012200883168700CC
:1006500000008312A0152008831687008312871DCF
:100660002F2B0000332B0000201620088316870054
:1006700000008312080064002014200883168700FD
:1006800083120718512BA0142008831687008312A9
:100690008718512B20152008831687008312071D09
:1006A000241064002418BD2D201420088316870010
:1006B0008312071C642BA014200883168700831262
:1006C000871C642B2414B70120152008831687008B
:1006D0008312071D742B24140130A5072508093C3B
:1006E000031D742B0130A50001302502F83E0318CC
:1006F000BD2D083EBE2D20142008831687008312CE
:10070000071CA72B24140130B0073008123C031D2E
:100710008B2B1130B0000B08F7008B131A30031726
:100720008D000313300803178C0083168C130C15EF
:1007300055308D00AA308D008C148C189D2B0C1117
:100740007708831203138B040530CC009020A0148B
:100750002008831687008312871CD32B24140130B2
:10076000B0023008073C031DB72B0830B0000B085F
:10077000F7008B131A3003178D000313300803178B
:100780008C0083168C130C1555308D00AA308D000B
:100790008C148C18C92B0C117708831203138B044B
:1007A0000530CC009020BD2D201420088316870032
:1007B0008312071CFE2B24140130B1073108313C91
:1007C0000319B1010B08F7008B13143003178D00C8
:1007D0000313310803178C0083168C130C15553046
:1007E0008D00AA308D008C148C18F42B0C11770816
:1007F000831203138B040530CC009020A014200832
:10080000831687008312871C282C24140130B10220
:10081000310F0C2C3030B1000B08F7008B13143063
:1008200003178D000313310803178C0083168C13F4
:100830000C1555308D00AA308D008C148C181E2C90
:100840000C117708831203138B040530CC00902021
:10085000BD2D20142008831687008312071C532CFB
:1008600024140130B2073208313C0319B2010B08DD
:10087000F7008B13163003178D000313320803178C
:100880008C0083168C130C1555308D00AA308D000A
:100890008C148C18492C0C117708831203138B04C9
:1008A0000530CC009020A014200883168700831206
:1008B000871C7D2C24140130B202320F612C3030A1
:1008C000B2000B08F7008B13163003178D000313CB
:1008D000320803178C0083168C130C1555308D00CD
:1008E000AA308D008C148C18732C0C11770883128D
:1008F00003138B040530CC009020BD2D201420085C
:10090000831687008312071CAA2C24140130B30716
:100910003308053C031D8E2C0430B3000B08F70090
:100920008B13183003178D000313330803178C0043
:1009300083168C130C1555308D00AA308D008C1445
:100940008C18A02C0C117708831203138B0405302C
:10095000CC009020A0142008831687008312871CE7
:10096000D52C24140130B302B308031DB92C013077
:10097000B3000B08F7008B13183003178D00031317
:10098000330803178C0083168C130C1555308D001B
:10099000AA308D008C148C18CB2C0C117708831284
:1009A00003138B040530CC009020BD2D20142008AB
:1009B000831687008312071CE22C8316881083128B
:1009C0008814E62C8316881083128810A01420083F
:1009D000831687008312871CF22C8316081183125A
:1009E0000815F62C8316081183120811BD2D201648
:1009F00020088316870000008312A01520088316A4
:100A00008700000083120712201220088316870037
:100A1000000083128711A011200883168700D030B0
:100A20008312C2004021C2014021201620088316F3
:100A3000870000008312A01520088316870000009D
:100A40008312871D212D071220122008831687008C
:100A5000000083128711A011200883168700D1306F
:100A60008312C20040210130F7008A2178087F39C3
:100A7000BE00C200CF217808A1000130F7008A2112
:100A800078087F39BE00C200CF217808B500F70191
:100A90008A2178083F39BE00C200CF217808B4000F
:100AA000201220088316870000008312A01520085A
:100AB000831687008312871D5B2D00005F2D0000C9
:100AC0002016200883168700000002308312CC0015
:100AD00090200730A500BD2D201420088316870024
:100AE0008312071C802D24140130B4073408173CEE
:100AF000031CB4013408BE003508BF00C001EE225B
:100B0000A0142008831687008312871C942D2414B8
:100B10000130B402340F8E2D1730B4003408BE00FB
:100B20003508BF00C001EE22BD2D20142008831619
:100B300087008312071CA92D24140130B50735083E
:100B40003B3C031CB5013408BE003508BF00C001A2
:100B5000EE22A0142008831687008312871CBD2D67
:100B600024140130B502350FB72D3B30B5003408E1
:100B7000BE003508BF00C001EE2208000A148A102A
:100B80000A158207D62C7E2C7B2BD42B292CF72CF4
:100B90006C2D952D0330C802031CD82D48308400DD
:100BA000831300080319D82DD62DD62D800BD52DF3
:100BB000080083160510831205100230C700F930B3
:100BC000C800CA25C70BDF2D831605140230831217
:100BD000C700F930C800CA25C70BE92D83160514D4
:100BE00083120800C8014808073C031C192E83160D
:100BF0000510831205100230F700F70BFD2D002EB3
:100C000000000310C70C0318072E0510082E05144A
:100C1000831605106330F700F70B0C2E0F2E05140A
:100C20000230F700F70B122E152E00008312C80AAF
:100C3000F32D0800C7014708073C031C402E83160C
:100C40000510831205100230F700F70B252E282E11
:100C50000000831605140C30F700F70B2D2E302EF4
:100C60000000051483120518372E0310382E0314C4
:100C7000C80CC730F700F70B3B2E3E2EC70A1B2EC1
:100C80004808F80008008E30F7004808F8004708C8
:100C9000F900FA01C81F512EF809F909F90A0319D8
:100CA000F80AF808031D5E2E7908F800F9010830EB
:100CB000F702F808031D5E2EF701672E0310F81BDC
:100CC000652EF90DF80DF7035E2EC81FF813080006
:100CD0004B0803192D2FD7004F0803192D2FD702CA
:100CE000031C772E7F30D70703182D2F7D2E8130E0
:100CF000D702031C2D2F03192D2F5708F700F801D9
:100D0000F901FA01D6014C08D500D5174D08D400D9
:100D10004E08D3001930D7005208D3020318A02E72
:100D20000130D4020318A02ED5020318A02ED6023B
:100D30000318A02ED60AD50AD40A5208D307D22EF9
:100D40005108D4020318BB2E0130D5020318BB2E64
:100D5000D6020318BB2ED60AD50A5108D40752086A
:100D6000D307031CD22ED40A031DD22ED50A031D8D
:100D7000D22ED60AD22E50088038D5020318D12E92
:100D80000130D6020318D12ED60A50088038D50774
:100D90005108D407031CAF2ED50A031DAF2ED60A67
:100DA000AF2E7A14D70BD52EE02E0310D30DD40D11
:100DB000D50DD60D0310FA0DF90DF80DD80D8C2EAA
:100DC000581CE82E0310F80CF90CFA0CD80CEB2E7A
:100DD000F70303192D2FD81B142F0310D30DD40D97
:100DE000D50DD60D5208D3020318002F0130D402BE
:100DF0000318002FD5020318002FD602031C232F3F
:100E00005108D40203180B2F0130D50203180B2F01
:100E1000D602031C232F50088038D5020318142F44
:100E20000130D602031C232FFA0A031D232FF90ACF
:100E3000031D232FF80A031D232FF70A03192D2F53
:100E4000F80CF90CFA0C4C08D7005008D706D71F3D
:100E50002B2FF817312FF813312FF701F801F90173
:100E6000FA0108008E30F7003E08F7023F08F9004B
:100E70004008F800F917F7080319492F0310F9087B
:100E8000031D452FF8080319492FF90CF80CF70B2F
:100E90003E2FBF1F502FF809F909F80A0319F90A64
:100EA00008008318562F533084008313F701F8018C
:100EB000F901FA01D301D401D501D6015208510438
:100EC00050044F040319942F2030D7000310CB0D8A
:100ED000CC0DCD0DCE0DD30DD40DD50DD60D5208A4
:100EE0005602031D7D2F51085502031D7D2F50080A
:100EF0005402031D7D2F4F085302031C8E2F4F08F1
:100F0000D3025008031C500FD4025108031C510F88
:100F1000D5025208031C520FD6020314F70DF80D28
:100F2000F90DFA0DD70B662F53088000840A540878
:100F30008000840A55088000840A56088000080052
:100F40004708F80146020318A82F4608F700B42FF7
:100F5000F7010830C800C60DF70D470877020318DF
:100F6000F700F80DC80BAB2F0800F701F801410896
:100F700003104218F707F70CF80CC218F707F70C24
:100F8000F80C4219F707F70CF80CC219F707F70C21
:100F9000F80C421AF707F70CF80CC21AF707F70C0F
:100FA000F80C421BF707F70CF80CC21BF707F70CFD
:100FB000F80C080083168510831285100230C700D4
:100FC000F930C800CA25C70BE02F831685140230FC
:100FD0008312C700F930C800CA25C70BEA2F831651
:060FE000851483120800D5
:101000000408C3004208C500031992284108CE0015
:101010004008CD003F08CC003E08CB00D201D101F2
:101020002030D0008230CF004B0803198428D30031
:101030004F0803198428D307031825287F30D302CB
:10104000031C84280319842829288130D307031816
:1010500084285308F700F801F901FA014C08D70079
:10106000D7174D08D6004E08D5001830D300D4014C
:10107000551C52285208FA07031C4428F90A031D7C
:101080004428F80A0319D4175108F907031C4B2800
:10109000F80A0319D4175008CD00CD174D08F807EA
:1010A0000318D417D40DF80CF90CFA0CD70CD60C85
:1010B000D50C0310D30B37280130F7070318842809
:1010C000F81B6928D70DFA0DF90DF80DF703031970
:1010D0008428D71F7A28FA0A031D7A28F90A031DE3
:1010E0007A28F80A031D7A28F80CF90CFA0CF70A8A
:1010F000031984284C08D4005008D406D41F822831
:10110000F8178828F8138828F701F801F901FA017F
:101110007A08C1007908C0007808BF007708BE00CF
:10112000C50B06284108CE004008CD003F08CC0082
:101130003E08CB004B08B63CCB00FA014C08CF0070
:10114000CC170310CC0CCD0CCE0CFA0CF90CF80C0F
:10115000F70CCB0BA128CF1FB828F709F809F9091C
:10116000FA09F70A0319F80A0319F90A0319FA0A1E
:101170007A08C1007908C0007808BF007708BE006F
:10118000C11FCF28C303C316BE09BF09C009C109C7
:10119000BE0A0319BF0A0319C00A0319C10A3B306A
:1011A000CA009A30C900CA30C800C7010A30C50059
:1011B00042080319C30A83143E3084008313410894
:1011C000CE004008CD003F08CC003E08CB004A08C6
:1011D000D2004908D1004808D0004708CF008A1142
:1011E00051278A157808F708031D0929420A450284
:1011F00003190929430803190B290F39450203195B
:10120000032903184329C31B4329431B0B292030FF
:101210003D292030C305C31E1B29C3124208031DEC
:10122000C3037708C3002D30CB008A1107228A152B
:101230004308F700C30142084502031D2B29770824
:10124000C3002E30CB008A1107228A154308F7000D
:101250002030C30500303030C31E3D29C312420880
:10126000031DC3037708C3002D30CB008A1107226A
:101270008A154308F700C3013030F7077708CB0021
:101280008A1107228A1583104A08CE004908CD002A
:101290004808CC004708CB00D201D101D0010A3068
:1012A000CF008A1151278A157A08CA007908C90027
:1012B0007808C8007708C700C50BDB280800203075
:1012C000411E3030C2004008F700C01F6F29F709E7
:1012D000F70A7708C0002D30C200C117411440083A
:1012E000C6006430C7008A11A0278A157708C0009D
:1012F00030307807C3004008C6000A30C7008A11A2
:10130000A0278A1530307707C50030307807C40031
:101310004208F7003030430203199229C114C11B5F
:101320004115A6294119A6294208C300C1189D29C3
:10133000303044020319A0294114C11BC114A6294D
:10134000031D4114031DA6294308C4004119AD29FA
:10135000C118B2294118B729BC294208CB008A110B
:1013600007228A154308CB008A1107228A154408F0
:10137000CB008A1107228A154508CB008A11072263
:101380008A1508000B08C1008B13831603178C17EE
:101390000C14000000000318F62983120C087F3992
:1013A0000313C20003170D080313C30003170F082C
:1013B0000313C4004208CB008A1107228A15430890
:1013C00003178D000313440803178F0083168C172F
:1013D0000C140000000083120313C00BF029F32942
:1013E00083160317F629172A8316031783120C0D89
:1013F0000E0D7F390313C20003170D080313C3003A
:1014000003170F080313C4004208CB008A110722F8
:101410008A15430803178D000313440803178F0030
:101420008D0A03198F0A03100313C00BC529C11BB2
:101430008B1708002030411E3030C2004008F700F2
:10144000C01F2A2AF709F70A7708C0002D30C2000A
:10145000C11741144008C6006430C7008A11A02794
:101460008A157708C00030307807C3004008C600EE
:101470000A30C7008A11A0278A1530307707C500C7
:1014800030307807C4004208F700303043020319B7
:101490004D2AC114C11B4115612A4208C3002030E6
:1014A000C200303044020319592A4114C11BC1142F
:1014B000612A031D4114031D612A4308C400203022
:1014C000C3004119682AC1186D2A4118722A772A67
:1014D0004208CB008A1107228A154308CB008A11E3
:1014E00007228A154408CB008A1107228A1545086D
:1014F000CB008A1107228A1508001030CC00013079
:10150000CD008A11F5218A15A41C8C2A2330CB002A
:101510008A1107228A15912A2030CB008A110722CE
:101520008A150130CC00CD008A11F5218A15B70843
:10153000031D112B381CD72A5430CB008A110722E7
:101540008A154F30CB008A1107228A153A30CB001A
:101550008A1107228A15033084002D08C1002C0847
:10156000C0002B08BF002A08BE000130C2000020C6
:10157000DF30CB008A1107228A154330CB008A1155
:1015800007228A152030CB008A1107228A152308EA
:10159000C0000130C1005F213A30CB008A11072220
:1015A0008A152208C0000130C1005F21112B543080
:1015B000CB008A1107228A154930CB008A110722F5
:1015C0008A153A30CB008A1107228A15033084002D
:1015D0002908C1002808C0002708BF002608BE004F
:1015E0000130C2000020DF30CB008A1107228A15AB
:1015F0004330CB008A1107228A152030CB008A1194
:1016000007228A152308C0000130C1005F213A304B
:10161000CB008A1107228A152208C0000130C100C0
:101620005F21370B1C2B0D3003178D0000308F000E
:101630008A1103132B228A153708023C031D292B1C
:10164000163003178D0000308F008A1103132B22F0
:101650008A153708033C031D362B1F3003178D00F6
:1016600000308F008A1103132B228A156400013089
:101670002502F83E03188F2C083E902C0130CC0038
:101680000230CD008A11F5218A153008073C031D70
:101690006B2B0310360DBE00283003178D00003071
:1016A0008F0003100C300313C000C2213E08C0009D
:1016B0001830C1001A222030CB008A1107228A1567
:1016C0006B30CB008A1107228A155730CB008A1164
:1016D00007228A15A92B3008C1000530C2008A11E3
:1016E000B5278A157808BE000310360DBF003130CB
:1016F00003178D0000308F00031004300313C00067
:10170000C2213E08C0001130C1001A22DF30CB00D8
:101710008A1107228A15353003178D0000308F009B
:10172000031405300313C000C2213F08C000183065
:10173000C1001A222030CB008A1107228A156B3093
:10174000CB008A1107228A155730CB008A11072255
:101750008A158F2C0130CC000230CD008A11F52182
:101760008A153108303C031DBF2B3B3003178D0019
:1017700000308F008A1103132B228A15E62B0310E9
:10178000310CBE0031080139C000C1001E30C2005A
:101790008A11B5278A157808BF00443003178D00D9
:1017A00000308F0003100B300313C000C2213E082D
:1017B000C0000130C1005F213A30CB008A110722FE
:1017C0008A153F08C0000130C1005F218F2C013015
:1017D000CC000230CD008A11F5218A153208303C48
:1017E000031DFB2B4F3003178D0000308F008A1133
:1017F00003132B228A150310320CBE003208013964
:10180000C000C1001E30C2008A11B5278A157808B1
:10181000BF00583003178D0000308F0003100B30CD
:101820000313C000C2213E08C0000130C1005F2187
:101830003A30CB008A1107228A153F08C0000130D8
:10184000C1005F218F2C0130CC000230CD008A1105
:10185000F5218A150310330DBE00633003178D0088
:1018600000308F0003100C300313C000C2213E086B
:10187000C0001830C1001A222030CB008A11072284
:101880008A156B30CB008A1107228A155730CB009E
:101890008A1107228A158F2C0130CC000230CD002E
:1018A0008A11F5218A156C3003178D0000308F00E6
:1018B0008A1103132B228A158F2C0130CC000230A1
:1018C000CD008A11F5218A15753003178D0000307F
:1018D0008F008A1103132B228A158F2C0130CC0024
:1018E0000230CD008A11F5218A157E3003178D0054
:1018F00000308F008A1103132B228A158F2C0130A0
:10190000CC000230CD008A11F5218A1587300317EB
:101910008D0000308F008A1103132B228A150800D6
:101920000A108A100A1582074C2C232C3E2BAA2B56
:10193000E72B5D2C6E2C7F2CC8014808073C031C4C
:10194000C32C83168510831285100230F700F70B25
:10195000A72CAA2C00000310C70C0318B12C85106B
:10196000B22C8514831685106330F700F70BB62C64
:10197000B92C85140230F700F70BBC2CBF2C0000EB
:101980008312C80A9D2C0800C7014708073C031CA6
:10199000EA2C83168510831285100230F700F70BAE
:1019A000CF2CD22C0000831685140C30F700F70BD7
:1019B000D72CDA2C0000851483128518E12C031033
:1019C000E22C0314C80CC730F700F70BE52CE82C09
:1019D000C70AC52C4808F800080064008A113B2398
:1019E0008A15BE018A11D9258A15CC30C7008A1103
:1019F000F2258A154430C7008A11F2258A15BE08DF
:101A0000031D082D8A111A268A157808BE00FF2C9E
:101A10008A11D9258A15CC30C7008A11F2258A157A
:101A2000BE30C7008A11F2258A158A111A268A1536
:101A30007808BF008A111A268A157808C000400865
:101A4000C2003F08C1004208C8004108C7008A110F
:101A500043268A157708C7007808C8007908C900A6
:101A60007A08CA00CE007908CD007808CC00770843
:101A7000CB00D201D101D0018330CF008A1168267A
:101A80008A157A08C6007908C5007808C400770866
:101A9000C300C830CC008A1190208A154308F70093
:101AA0004408F8004508F9004608FA007A08A90039
:101AB0007908A8007808A7007708A6002908C100BF
:101AC0002808C0002708BF002608BE008A11322758
:101AD0008A157808AE007D2264008A113B238A159E
:101AE000BE018A11DA278A15CC30C7009C24443005
:101AF000C7009C24BE08031D812DC4247808BE00A5
:101B00007A2D8A11DA278A15CC30C7009C24BE3082
:101B1000C7009C24C4247808BF00C4247808C000EF
:101B20004008C2003F08C1004208C8004108C70081
:101B30008A1143268A157708C7007808C8007908F3
:101B4000C9007A08CA00CE007908CD007808CC0018
:101B50007708CB00D201D101D0018330CF008A11A8
:101B600068268A157A08C6007908C5007808C40076
:101B70007708C300C830CC008A1190208A1543082A
:101B8000F7004408F8004508F9004608FA007A080A
:101B9000AD007908AC007808AB007708AA002D08E2
:101BA000C1002C08C0002B08BF002A08BE008A1103
:101BB00032278A157808AF007D226400080064008F
:101BC00083161F1383121F179F1783169F138312E9
:101BD0001F1483161F109F141F119F111830F80037
:101BE00083121F08C73978049F000530CC008A1182
:101BF00090208A151F151F19FB2D1E08BE003E08D8
:101C0000BF003E08AA3C0318072EA414082EA410F7
:101C10002030F8001F08C73978049F000530CC0039
:101C20008A1190208A151F151F19142E1E08BE0038
:101C30003E08C0003E08AA3C0318202E2415212E81
:101C4000241183161F149F141F159F1183121F1038
:101C500008000310310C2302031D3D2E3108013909
:101C6000BF00C1001E30C2008A11B5278A152208A4
:101C70007802031D3D2E0330A5000310320C230211
:101C8000031D512E32080139BF00C1001E30C200B1
:101C90008A11B5278A1522087802031D512E0230B9
:101CA000A5008A110A16752A2016200883168700B7
:101CB00000008312A01520088316870000008312FD
:101CC0000712201220088316870000008312871154
:101CD000A011200883168700D0308312C2008A1119
:101CE00040218A15C2018A1140218A152016200838
:101CF0008316870000008312A01520088316870032
:101D000000008312871D822E0712201220088316DE
:101D10008700000083128711A01120088316870016
:101D2000D1308312C2008A1140218A150130F70098
:101D30008A118A218A1578087F39BE00C2008A116B
:101D4000CF218A157808A1000130F7008A118A2175
:101D50008A1578087F39BE00C2008A11CF218A1502
:101D60007808A200F7018A118A218A1578083F397C
:101D7000BE00C2008A11CF218A157808A300201264
:101D800020088316870000008312A0152008831600
:101D900087008312871DCA2E0000CE2E0000201659
:101DA000200883168700000002308312CC008A11BD
:101DB00090208A158A110A168E2A2F08273C031CA8
:101DC000EA2E2E08273C031CEA2E83168810831265
:101DD0008810EE2E8316881083128814831608113B
:101DE00083120811C0018A1176228A1508002F0873
:101DF000563C0318FF2E2F08643C0318B90A2E081E
:101E0000563C0318072F2E08643C0318BA0A3908F9
:101E1000023C031C0F2F3A08023C0318122FDD2648
:101E20000130B700241D172FDD260230B7002F0820
:101E3000643C031C1E2F2F08033C0318BB0A2E080A
:101E4000643C031C262F2E08033C0318BC0A3B08E5
:101E5000023C031C2F2F3C08023C0318322FDD26C6
:101E60000330B700B708031DC82F2508033C031D26
:101E7000C72F2E082F07F7000310770CBF00250887
:101E8000033C031DC12F64003008073C031D622F73
:101E90002F08273C031C552F2E08273C031C552FC9
:101EA0008316881083128810592F83168810831286
:101EB00088148316081183120811C0018A11762232
:101EC0008A15C02F83168810831288143008C10029
:101ED0000530C2008A11B5278A1578083F02031C15
:101EE000762FC0018A1176228A15C02F3008C100D2
:101EF0000530C2008A11B5278A153F087802BE0056
:101F00003E0B872F0130C0008A1176228A153E08C9
:101F1000023C031D9A2F3308013C0318952F023011
:101F2000C0008A1176228A159A2F3308C0008A11C0
:101F300076228A153E08033C031DAD2F3308023C70
:101F40000318A82F0330C0008A1176228A15AD2FFE
:101F50003308C0008A1176228A153E08033C031814
:101F6000C02F3308033C0318BB2F0430C0008A1174
:101F700076228A15C02F3308C0008A1176228A156E
:101F8000C22FDD268316881083128814C82FDD2601
:061F90008A110A169E2AC8
:102000000F30F70081018130840083130008F0391C
:102010000738800064000008F739F719F0397704B1
:102020008000831688138312881383160813831283
:10203000081383168812831288120F30CC000A12FC
:1020400090200A16BE013E08023C031C33280330D0
:10205000D3000A12A4200A160530CC000A129020E0
:102060000A16BE0A23280230D3000A12A4200A1638
:10207000BE013E08033C031C4A283E080A12042005
:102080000A16BF00D0013F08D1000A1203210A1628
:10209000BE0A3928BE0120162008831687000000DA
:1020A0008312A015200883168700000083120712F0
:1020B0002012200883168700000083128711A011C8
:1020C000200883168700D0308312C2000A124021F4
:1020D0000A16C2010A1240210A1620162008831689
:1020E000870000008312A0152008831687000000D7
:1020F0008312871D79280712201220088316870073
:10210000000083128711A011200883168700D130A8
:102110008312C2000A1240210A16F7010A128A210C
:102120000A167808BF00C2000A12CF210A167808E2
:10213000BE00201220088316870000008312A0151D
:102140002008831687008312871DA4280000A82872
:102150000000201620088316870000008312BE139B
:102160000430F700F70BB228B52820162008831694
:10217000870000008312A015200883168700000046
:102180008312071220122008831687000000831292
:102190008711A011200883168700D0308312C20057
:1021A0000A1240210A16C2010A1240210A163E08EC
:1021B000C1000A12E2210A167808BF00C2000A1202
:1021C00040210A162016200883168700000083127B
:1021D000A01520088316870000008312871DEE28B3
:1021E000071220122008831687000000831287112F
:1021F000A011200883168700D0308312C2000A1273
:1022000040210A160730C2000A1240210A16803007
:10221000C2000A1240210A162012200883168700E5
:1022200000008312A0152008831687008312871DE3
:10223000172900001B29000020162008831687009C
:10224000000005308312CC000A1290200A160C30D0
:1022500003178D0000308F000A1203132B220A1679
:1022600083161F149F141F159F1183121F108316AE
:1022700009128312940183160108C73908388100B6
:10228000831290010030F800920000308316920013
:1022900007309C00050885001030F700F70B4E2929
:1022A00000001C0883120D13FE3083169D000515D7
:1022B0001430831203178D0083168C130C148312B1
:1022C0000C080313B10031082F3C0318692924308E
:1022D000B100163003178D0083168C130C14831273
:1022E0000C080313B20032082F3C031879290C3074
:1022F000B200183003178D0083168C130C14831250
:102300000C080313B3003308043C031C8A29B308E8
:10231000031D8C290430B3001A3003178D00831677
:102320008C130C1483120C080313B0003008123CF9
:10233000031C9E293008023C031CA0290D30B0006C
:102340000130A500B801A4102411B901BA01BB01E4
:10235000BC01B701C0010A1276220A162016200815
:102360008316870000008312A015200883168700BB
:102370000000831207122012200883168700000035
:1023800083128711A011200883168700D030831292
:10239000C2000A1240210A16C2010A1240210A167E
:1023A000201620088316870000008312A01520083D
:1023B0008316870000008312871DDC290712201274
:1023C000200883168700000083128711A0112008BF
:1023D00083168700D1308312C2000A1240210A16E8
:1023E0000130F7000A128A210A1678087F39BE00E8
:1023F000C2000A12CF210A167808A1000130F700A6
:102400000A128A210A1678087F39BE00C2000A1211
:10241000CF210A167808A200F7010A128A210A16AB
:1024200078083F39BE00C2000A12CF210A16780888
:10243000A300201220088316870000008312A01535
:102440002008831687008312871D242A0000282A6B
:102450000000201620088316870000000230831237
:10246000CC000A1290200A162308173C031C402AAD
:1024700022083B3C031C402A21083B3C0318462A07
:10248000BE01BF01C0010A12EE220A160A128A1505
:10249000ED240A168A118A110A165D2A8401831313
:1024A0001F308305FF30A00083161F149F141F15D3
:1024B0009F1107309C00831200280A128A15DF251D
:1024C0000A168A11BD0A3D0F8A2AB80A0A128A150D
:1024D000DF250A168A1164000A128A15ED240A16ED
:1024E0008A1164000A128A15292E0A168A11A41C60
:1024F0007E2A8316081183120815822A8316081172
:102500008312081138080339031D8A2AB901BA0158
:10251000BB01BC0164000A128A15542E0A168A11E6
:1025200064000A123B230A1664000A128A157D22EF
:102530000A168A1164000A128A15F72E0A168A11E1
:062540006400622A630042
:02400E00763FFB
:00000001FF
;PIC16F877A
;CRC=4A27  CREATED="21-may.-18 19:24"
