:100000000F308A009F2F00000A108A100A11820701
:1000100028340C34013406340C00452CC322D32779
:1000200020224510D4224D2845290001C220CA278C
:100030002027492B4526A020C72A41100001C620B1
:100040004C264110C422A0294527D3275210000175
:10005000D432721DA02746232028BA12321731331A
:10006000EB2B0000D432721D2519E412E321202865
:10007000BA1232173133EB2B8000C839A022EE318F
:100080006537641DA027462320100001C839A0222F
:10009000EE316537641DA0123019641D2518323207
:1000A0000001C839A020F030E730641DA0274623A6
:1000B00020100001C839A020F030E730641DA012E4
:1000C0003019641D251832320001CC34ED34F4327D
:1000D00020286F3ABA1232173133EB2B0001413925
:1000E0003A104231611041313A10D6306C3B000178
:1000F0004135F539F43220326510C837F23020101E
:1001000000014135F539F43220326510C837F2303C
:10011000201000014135F539F43220326510CD341C
:10012000EE3AF437000151308400831300080319BC
:10013000A6280630F800F701F70B9C28F80B9B283F
:100140007B30F700F70BA228800B9928080058187D
:10015000AB280812AC280816831608128312D81888
:10016000B3288713B4288717A013200883168700A5
:1001700083125819BD280713BE280717201320081B
:10018000831687008312D819C7288712C8288716B4
:10019000A012200883168700000088128312881698
:1001A0000230F700F70BD228D528000083168812FA
:1001B000831288120800D9018316881283128816C8
:1001C00000008316081683125910081A5914A01734
:1001D0002008831687008312D910871BD914201793
:1001E00020088316870083125911071B5915A01682
:1001F0002008831687008312D911871AD915831610
:100200008812831288125908F80008008316881390
:100210008312881383160813831208170000DB204B
:100220007808D800DB207808D700580EF700F030A7
:10023000F70577085704F8007808D700D71B0A2974
:10024000D5080319282983168813831288172C29A7
:1002500083168813831288130000831608138312F1
:10026000081300008316881283128812560ED700D6
:100270000F30D7055708D800A72056080F39D700E8
:10028000D800A72008000830F80000008711A0114E
:1002900020088316870000008312C20D0712031C7A
:1002A000572920162008831687005B298312201205
:1002B00020088316870000008312A01520088316EB
:1002C00087008312871D6229F80B452900008711DA
:1002D000A011200883168700000083122016200832
:1002E00083168700000000008312A01520088316E3
:1002F00087008312871D7A29F8010000071A7814F5
:100300008711A0112008831687008312071220127C
:10031000200883168700831208000830C20077087F
:10032000C300201620088316870000008312A01542
:100330002008831687008312871D9C29071A03143F
:10034000071E0310F80D0000A01120088316870077
:1003500083128711C20B912920162008831687006B
:1003600000008312071243080319BB29201220083A
:100370008316870083120000A015200883168700CB
:100380008312871DC12900008711A0112008831640
:1003900087000000831207122012200883168700AE
:1003A000831208004208C3000310C30C7830C30551
:1003B000430CF700F70C3F30F70577084307C400FC
:1003C00042080F394407F80008004108C200C30181
:1003D0004208093C0318F1290A30C2021030C30751
:1003E000F4294208C307F529E8294308F800080062
:1003F000520BFB29FE294030D300FF29D3010130E5
:100400005102D30753088038D400D5015408D600D0
:100410000621080050080C3A0319152A063A031958
:100420001D2A023A0319232A282AD5010130D600B1
:1004300006210230D10093202D2A0130D100023054
:10044000D200F8212D2AD5011030D60006212D2A00
:100450000130D5005008D600062108000B08BE0068
:100460008B13831603178C170C14000000008312E3
:100470000C087F390319752A0313BF0003170D08F1
:100480000313C00003170F080313C1003F08D00077
:100490000A22400803178D000313410803178F0039
:1004A00083168C170C140000000083120C0D0E0D27
:1004B0007F390319752A0313BF0003170D080313AF
:1004C000C00003170F080313C1003F08D0000A2221
:1004D000400803178D000313410803178F008D0A8E
:1004E00003198F0A0313312A03170313BE1B8B173B
:1004F00008004008F73E0318282B093E2C2B8316D2
:100500000610831206108316861083128610831637
:100510000611831206118316861183128611282B69
:100520008316061083120614831686108312861013
:100530008316061183120611831686118312861103
:10054000282B83160610831206108316861083123A
:1005500086108316061183120615831686118312E0
:100560008611282B83160610831206108316861018
:1005700083128614831606118312061583168611BC
:1005800083128611282B83160610831206108316F9
:1005900086108312861083160611831206118316A5
:1005A000861183128615282B8316061083120610D7
:1005B0008316861083128614831606118312061181
:1005C0008316861183128615282B83160610831234
:1005D0000610831686108312861083160611831266
:1005E00006158316861183128615282B831606108E
:1005F0008312061083168610831286148316061142
:10060000831206158316861183128615282B8316EE
:10061000061083120614831686108312861483161E
:100620000611831206158316861183128615282B50
:100630008316061083120610831686108312861006
:1006400083160611831206118316861183128611F2
:100650004008B600640008000A148A140A118207D0
:100660007F2A902AA12AB22AC32AD42AE52AF62A66
:10067000072BC0133F30BE052016200883168700C5
:1006800000008312A0152008831687000000831243
:10069000071220122008831687000000831287119A
:1006A000A011200883168700D0308312C200432196
:1006B000C20143214008C100E5217808C100C20001
:1006C00043213F08C100E5217808C100C200432151
:1006D0003E08C100E5217808C100C2004321201274
:1006E00020088316870000008312A01520088316B7
:1006F00087008312871D7A2B00007E2B00002016B6
:10070000200883168700000083120800640020146C
:10071000200883168700831207189C2BA01420083A
:1007200083168700831287189C2B201520088316B8
:1007300087008312071D241064002418082E20143B
:100740002008831687008312071CAF2BA0142008F3
:10075000831687008312871CAF2B2414B701201542
:100760002008831687008312071DBF2B2414013035
:10077000A5072508093C031DBF2B0130A50001304A
:100780002502F83E0318082E083E092E20142008E2
:10079000831687008312071CF22B24140130B00744
:1007A0003008123C031DD62B1130B0000B08F700A7
:1007B0008B131A3003178D000313300803178C00B6
:1007C00083168C130C1555308D00AA308D008C14B7
:1007D0008C18E82B0C117708831203138B04053057
:1007E000D1009320A0142008831687008312871C51
:1007F0001E2C24140130B0023008073C031D022CCB
:100800000830B0000B08F7008B131A3003178D0067
:100810000313300803178C0083168C130C15553006
:100820008D00AA308D008C148C18142C0C117708B4
:10083000831203138B040530D1009320082E20145B
:100840002008831687008312071C492C24140130CA
:10085000B1073108313C0319B1010B08F7008B13C4
:10086000143003178D000313310803178C0083160F
:100870008C130C1555308D00AA308D008C148C18FB
:100880003F2C0C117708831203138B040530D10021
:100890009320A0142008831687008312871C732CD2
:1008A00024140130B102310F572C3030B1000B0845
:1008B000F7008B13143003178D000313310803174F
:1008C0008C0083168C130C1555308D00AA308D00CA
:1008D0008C148C18692C0C117708831203138B0469
:1008E0000530D1009320082E20142008831687009D
:1008F0008312071C9E2C24140130B2073208313CAD
:100900000319B2010B08F7008B13163003178D0083
:100910000313320803178C0083168C130C15553003
:100920008D00AA308D008C148C18942C0C11770833
:10093000831203138B040530D1009320A0142008E8
:10094000831687008312871CC82C24140130B2023E
:10095000320FAC2C3030B2000B08F7008B1316307E
:1009600003178D000313320803178C0083168C13B2
:100970000C1555308D00AA308D008C148C18BE2CAF
:100980000C117708831203138B040530D1009320D8
:10099000082E20142008831687008312071CF52CCC
:1009A00024140130B3073308093C031DD92C083047
:1009B000B3000B08F7008B13183003178D000313D7
:1009C000330803178C0083168C130C1555308D00DB
:1009D000AA308D008C148C18EB2C0C117708831224
:1009E00003138B040530D1009320A0142008831634
:1009F00087008312871C202D24140130B302B30812
:100A0000031D042D0130B3000B08F7008B131830C1
:100A100003178D000313330803178C0083168C1300
:100A20000C1555308D00AA308D008C148C18162DA5
:100A30000C117708831203138B040530D100932027
:100A4000082E20142008831687008312071C2D2DE2
:100A50008316881083128814312D83168810831210
:100A60008810A0142008831687008312871C3D2D50
:100A70008316081183120815412D8316081183125D
:100A80000811082E20162008831687000000831204
:100A9000A015200883168700000083120712201279
:100AA000200883168700000083128711A0112008F8
:100AB00083168700D0308312C2004321C201432134
:100AC000201620088316870000008312A015200836
:100AD0008316870000008312871D6C2D07122012D9
:100AE000200883168700000083128711A0112008B8
:100AF00083168700D1308312C20043210130F700F2
:100B00008D2178087F39BE00C200D2217808A1006B
:100B10000130F7008D2178087F39BE00C200D22154
:100B20007808B500F7018D2178083F39BE00C20072
:100B3000D2217808B4002012200883168700000014
:100B40008312A0152008831687008312871DA62D07
:100B50000000AA2D00002016200883168700000040
:100B600002308312D10093200730A500082E2014F4
:100B70002008831687008312071CCB2D2414013014
:100B8000B4073408173C031CB4013408BE00350810
:100B9000BF00C0013923A0142008831687008312E8
:100BA000871CDF2D24140130B402340FD92D1730E7
:100BB000B4003408BE003508BF00C0013923082E38
:100BC00020142008831687008312071CF42D241498
:100BD0000130B50735083B3C031CB5013408BE00A5
:100BE0003508BF00C0013923A014200883168700F0
:100BF0008312871C082E24140130B502350F022EF3
:100C00003B30B5003408BE003508BF00C0013923B1
:100C100008000A108A140A158207212DC92CC62B38
:100C20001F2C742C422DB72DE02D0330C802031C5D
:100C3000232E48308400831300080319232E212E0D
:100C4000212E800B202E080083160510831205101C
:100C50000230C700F930C8001526C70B2A2E8316AC
:100C6000051402308312C700F930C8001526C70BDF
:100C7000342E8316051483120800C8014808073C67
:100C8000031C642E83160510831205100230F70032
:100C9000F70B482E4B2E00000310C70C0318522EE2
:100CA0000510532E0514831605106330F700F70B5B
:100CB000572E5A2E05140230F700F70B5D2E602ECA
:100CC00000008312C80A3E2E0800C7014708073CEF
:100CD000031C8B2E83160510831205100230F700BB
:100CE000F70B702E732E0000831605140C30F700DE
:100CF000F70B782E7B2E0000051483120518822E28
:100D00000310832E0314C80CC730F700F70B862E90
:100D1000892EC70A662E4808F80008008E30F700B2
:100D20004808F8004708F900FA01C81F9C2EF80986
:100D3000F909F90A0319F80AF808031DA92E790818
:100D4000F800F9010830F702F808031DA92EF70191
:100D5000B22E0310F81BB02EF90DF80DF703A92ED3
:100D6000C81FF81308004B080319782FD7004F0845
:100D70000319782FD702031CC22E7F30D707031820
:100D8000782FC82E8130D702031C782F0319782FB3
:100D90005708F700F801F901FA01D6014C08D5000F
:100DA000D5174D08D4004E08D3001930D70052088B
:100DB000D3020318EB2E0130D4020318EB2ED50218
:100DC0000318EB2ED6020318EB2ED60AD50AD40A46
:100DD0005208D3071D2F5108D4020318062F0130E3
:100DE000D5020318062FD6020318062FD60AD50AF5
:100DF0005108D4075208D307031C1D2FD40A031D22
:100E00001D2FD50A031D1D2FD60A1D2F500880380F
:100E1000D50203181C2F0130D60203181C2FD60A46
:100E200050088038D5075108D407031CFA2ED50A7C
:100E3000031DFA2ED60AFA2E7A14D70B202F2B2F49
:100E40000310D30DD40DD50DD60D0310FA0DF90DE9
:100E5000F80DD80DD72E581C332F0310F80CF90CB1
:100E6000FA0CD80C362FF7030319782FD81B5F2FF5
:100E70000310D30DD40DD50DD60D5208D30203188F
:100E80004B2F0130D40203184B2FD50203184B2FE0
:100E9000D602031C6E2F5108D4020318562F0130BE
:100EA000D5020318562FD602031C6E2F5008803827
:100EB000D50203185F2F0130D602031C6E2FFA0AE9
:100EC000031D6E2FF90A031D6E2FF80A031D6E2FE6
:100ED000F70A0319782FF80CF90CFA0C4C08D70014
:100EE0005008D706D71F762FF8177C2FF8137C2FC2
:100EF000F701F801F901FA0108008E30F7003E0809
:100F0000F7023F08F9004008F800F917F70803193D
:100F1000942F0310F908031D902FF8080319942F3C
:100F2000F90CF80CF70B892FBF1F9B2FF809F90953
:100F3000F80A0319F90A08008318A12F5830840011
:100F40008313F701F801F901FA01D801D901DA0197
:100F5000DB0157085604550454040319DF2F2030D1
:100F6000DC000310D00DD10DD20DD30DD80DD90D4D
:100F7000DA0DDB0D57085B02031DC82F56085A0215
:100F8000031DC82F55085902031DC82F54085802C5
:100F9000031CD92F5408D8025508031C550FD90239
:100FA0005608031C560FDA025708031C570FDB02C2
:100FB0000314F70DF80DF90DFA0DDC0BB12F5808DD
:100FC0008000840A59088000840A5A088000840A34
:100FD0005B08800008004A08F80149020318F32F53
:100FE0004908F700FF2FF7010830CB00C90DF70DB6
:100FF0004A0877020318F700F80DCB0BF62F08000C
:10100000500803197028D800540803197028D8070D
:10101000031811287F30D802031C70280319702888
:1010200015288130D807031870285808F700F801F0
:10103000F901FA015108DC00DC175208DB00530803
:10104000DA001830D800D9015A1C3E285708FA0790
:10105000031C3028F90A031D3028F80A0319D91790
:101060005608F907031C3728F80A0319D917550839
:10107000D200D2175208F8070318D917D90DF80C67
:10108000F90CFA0CDC0CDB0CDA0C0310D80B23285F
:101090000130F70703187028F81B5528DC0DFA0DEE
:1010A000F90DF80DF70303197028DC1F6628FA0AFA
:1010B000031D6628F90A031D6628F80A031D662821
:1010C000F80CF90CFA0CF70A031970285108D9002A
:1010D0005508D906D91F6E28F8177428F8137428F4
:1010E000F701F801F901FA0108000408C8004708EF
:1010F000CA00031994284608D3004508D2004408C2
:10110000D1004308D000D701D6012030D50082306D
:10111000D40000207A08C6007908C5007808C40009
:101120007708C300CA0B7B284608D3004508D200C5
:101130004408D1004308D0005008B63CD000FA0162
:101140005108D400D1170310D10CD20CD30CFA0CD7
:10115000F90CF80CF70CD00BA328D41FBA28F70908
:10116000F809F909FA09F70A0319F80A0319F90A3B
:101170000319FA0A7A08C6007908C5007808C4007D
:101180007708C300C61FD128C803C816C309C409FD
:10119000C509C609C30A0319C40A0319C50A0319F4
:1011A000C60A3B30CF009A30CE00CA30CD00CC0109
:1011B0000A30CA0047080319C80A83144330840060
:1011C00083134608D3004508D2004408D1004308E1
:1011D000D0004F08D7004E08D6004D08D5004C0867
:1011E000D4008A119C278A157808F708031D0B295B
:1011F000470A4A0203190B29480803190D290F3918
:101200004A020319052903184529C81B4529481B0B
:101210000D2920303F292030C805C81E1D29C812BD
:101220004708031DC8037708C8002D30D0008A1175
:101230000A228A154808F700C80147084A02031D18
:101240002D297708C8002E30D0008A110A228A156D
:101250004808F7002030C80500303030C81E3F294C
:10126000C8124708031DC8037708C8002D30D000F6
:101270008A110A228A154808F700C8013030F7079A
:101280007708D0008A110A228A1583104F08D300EC
:101290004E08D2004D08D1004C08D000D701D6012D
:1012A000D5010A30D4008A119C278A157A08CF000C
:1012B0007908CE007808CD007708CC00CA0BDD286D
:1012C00008002030411E3030C2004008F700C01F27
:1012D0007129F709F70A7708C0002D30C200C1173D
:1012E00041144008C9006430CA008A11EB278A15EE
:1012F0007708C00030307807C3004008C9000A30C2
:10130000CA008A11EB278A1530307707C5003030C4
:101310007807C4004208F7003030430203199429CB
:10132000C114C11B4115A8294119A8294208C300AD
:10133000C1189F29303044020319A2294114C11B4E
:10134000C114A829031D4114031DA8294308C40082
:101350004119AF29C118B4294118B929BE29420839
:10136000D0008A110A228A154308D0008A110A2265
:101370008A154408D0008A110A228A154508D0002F
:101380008A110A228A1508008E30F7004008F800FA
:101390003F08F900FA01F808031DD8297908F80078
:1013A000F9010830F702F808031DD829F701E029F0
:1013B0000310F81BDF29F90DF80DF703D829F813EE
:1013C00008000B08C4008B13831603178C170C142A
:1013D000000000000318152A83120C087F3903133C
:1013E000C50003170D080313C60003170F080313E6
:1013F000C7004508D0008A110A228A15460803173B
:101400008D000313470803178F0083168C170C14E5
:101410000000000083120313C30B0F2A122A831645
:101420000317152A362A8316031783120C0D0E0D87
:101430007F390313C50003170D080313C6000317F4
:101440000F080313C7004508D0008A110A228A1525
:10145000460803178D000313470803178F008D0AF2
:1014600003198F0A03100313C30BE429C41B8B1742
:101470000800F701F801410803104218F707F70CBC
:10148000F80CC218F707F70CF80C4219F707F70C1D
:10149000F80CC219F707F70CF80C421AF707F70C0B
:1014A000F80CC21AF707F70CF80C421BF707F70CF9
:1014B000F80CC21BF707F70CF80C08001030D1002D
:1014C0000130D2008A11F8218A15A41C6D2A23301C
:1014D000D0008A110A228A15722A2030D0008A117F
:1014E0000A228A150130D100D2008A11F8218A150A
:1014F000B708031DF22A381CB82A5430D0008A11CC
:101500000A228A154F30D0008A110A228A153A30F1
:10151000D0008A110A228A15033084002D08C600E3
:101520002C08C5002B08C4002A08C3000130C700DE
:101530007520DF30D0008A110A228A154330D0008E
:101540008A110A228A152030D0008A110A228A15AF
:101550002308C0000130C10061213A30D0008A1157
:101560000A228A152208C0000130C1006121F22A36
:101570005430D0008A110A228A154930D0008A11CD
:101580000A228A153A30D0008A110A228A150330BD
:1015900084002908C6002808C5002708C4002608BA
:1015A000C3000130C7007520DF30D0008A110A2245
:1015B0008A154330D0008A110A228A152030D000C3
:1015C0008A110A228A152308C0000130C100612156
:1015D0003A30D0008A110A228A152208C000013050
:1015E000C1006121370BFD2A0D3003178D0000303B
:1015F0008F008A1103132E228A153708023C031D1F
:101600000A2B163003178D0000308F008A11031348
:101610002E228A153708033C031D172B1F30031792
:101620008D0000308F008A1103132E228A1564006A
:1016300001302502F83E0318222D083E232D0130EB
:10164000D1000230D2008A11F8218A153008073CF7
:10165000031D692BC0013608BF00C4217A08D300DE
:101660007908D2007808D1007708D0009A30D700E6
:101670009930D6001930D5007F30D400002077088B
:10168000BE007808BF007908C0007A08C100283081
:1016900003178D0000308F0003100B300313C300BD
:1016A000E121013084004108C6004008C5003F0820
:1016B000C4003E08C3000130C70075206B30D00065
:1016C0008A110A228A155730D0008A110A228A15F7
:1016D000232C3008C1000530C20039227808BE0032
:1016E000C0013608BF00C4217A08D3007908D200AF
:1016F0007808D1007708D0009A30D7009930D6000A
:101700001930D5007F30D40000207708BF0078085A
:10171000C0007908C1007A08C200323003178D007A
:1017200000308F00031004300313C300E1213E0892
:10173000C3001130C4002030441E3030C5004308BF
:10174000F700C31FAB2BF709F70A7708C3002D304A
:10175000C500C41744144308C9006430CA008A1184
:10176000EB278A157708C30030307807C600430896
:10177000C9000A30CA008A11EB278A153030770772
:10178000C80030307807C7004508F70030304602FF
:101790000319CE2BC414C41B4415E22B4508C60004
:1017A0002030C500303047020319DA2B4414C41B23
:1017B000C414E22B031D4414031DE22B4608C7008A
:1017C0002030C6004419E92BC418EE2B4418F32B23
:1017D000F82B4508D0008A110A228A154608D00045
:1017E0008A110A228A154708D0008A110A228A150E
:1017F0004808D0008A110A228A15DF30D0008A11E9
:101800000A228A15363003178D0000308F0003142A
:1018100004300313C300E121013084004208C600F4
:101820004108C5004008C4003F08C3000130C7009C
:1018300075206B30D0008A110A228A155730D000EB
:101840008A110A228A15222D0130D1000230D200DD
:101850008A11F8218A153108303C031D392C3D309E
:1018600003178D0000308F008A1103132E228A1572
:101870005E2C0310310CBE0031080139C000C100DC
:101880001E30C20039227808BF00463003178D0091
:1018900000308F0003100B300313C300E1213E081A
:1018A000C0000130C10061213A30D0008A110A2203
:1018B0008A153F08C0000130C1006121222D01308E
:1018C000D1000230D2008A11F8218A153208303C4A
:1018D000031D732C513003178D0000308F008A11C7
:1018E00003132E228A150310320CBE003208013970
:1018F000C000C1001E30C20039227808BF005A3033
:1019000003178D0000308F0003100B300313C3004A
:10191000E1213E08C0000130C10061213A30D00011
:101920008A110A228A153F08C0000130C1006121D6
:10193000222D0130D1000230D2008A11F8218A15FF
:10194000C0013308BF00C4217A08D3007908D2004F
:101950007808D1007708D0009A30D7009930D600A7
:101960001930D5007F30D40000207708BE007808F9
:10197000BF007908C0007A08C100653003178D00E8
:1019800000308F0003100B300313C300E12101303E
:1019900084004108C6004008C5003F08C4003E0856
:1019A000C3000130C70075206B30D0008A110A22B5
:1019B0008A155730D0008A110A228A15222D01304B
:1019C000D1000230D2008A11F8218A156F30031736
:1019D0008D0000308F008A1103132E228A15222DCC
:1019E0000130D1000230D2008A11F8218A157830F6
:1019F00003178D0000308F008A1103132E228A15E1
:101A0000222D0130D1000230D2008A11F8218A152E
:101A1000813003178D0000308F008A1103132E22AE
:101A20008A15222D0130D1000230D2008A11F8210E
:101A30008A158A3003178D0000308F008A11031336
:101A40002E228A1508000A148A100A158207DF2C34
:101A5000992C1F2B242C5F2CF02C012D122D83167A
:101A60008510831285100230C700F930C8008A1132
:101A700015268A15C70B352D83168514023083125F
:101A8000C700F930C8008A1115268A15C70B412DE9
:101A90008316851483120800C8014808073C031CFC
:101AA000732D83168510831285100230F700F70B13
:101AB000572D5A2D00000310C70C0318612D8510F7
:101AC000622D8514831685106330F700F70B662DA1
:101AD000692D85140230F700F70B6C2D6F2D000077
:101AE0008312C80A4D2D0800C7014708073C031C94
:101AF0009A2D83168510831285100230F700F70B9C
:101B00007F2D822D0000831685140C30F700F70B13
:101B1000872D8A2D0000851483128518912D0310BE
:101B2000922D0314C80CC730F700F70B952D982D94
:101B3000C70A752D4808F800080064008A1186233A
:101B40008A15BE018A1124268A15CC30C7008A1155
:101B50003D268A154430C7008A113D268A15BE08E5
:101B6000031DB82D8A1165268A157808BE00AF2D91
:101B70008A1124268A15CC30C7008A113D268A1581
:101B8000BE30C7008A113D268A158A1165268A153E
:101B90007808BF008A1165268A157808C0004008B9
:101BA000C2003F08C1004208C8004108C7008A11AE
:101BB0008E268A157708C7007808C8007908C900FA
:101BC0007A08CA00CE007908CD007808CC007708E2
:101BD000CB00D201D101D0018330CF008A11B326CE
:101BE0008A157A08C6007908C5007808C400770805
:101BF000C300C830D1008A1193208A154308F7002A
:101C00004408F8004508F9004608FA007A08A900D7
:101C10007908A8007808A7007708A6002908C1005D
:101C20002808C0002708BF002608BE008A117D27AB
:101C30008A157808AE005E2264008A1186238A1510
:101C4000BE012F25CC30C7004C254430C7004C25A1
:101C5000BE08031D2F2E74257808BE00282E2F25C0
:101C6000CC30C7004C25BE30C7004C257425780801
:101C7000BF0074257808C0004008C2003F08C100BA
:101C80004208C8004108C7008A118E268A157708C5
:101C9000C7007808C8007908C9007A08CA00CE00D1
:101CA0007908CD007808CC007708CB00D201D101AB
:101CB000D0018330CF008A11B3268A157A08C60076
:101CC0007908C5007808C4007708C300C830D1007F
:101CD0008A1193208A154308F7004408F800450844
:101CE000F9004608FA007A08AD007908AC007808D7
:101CF000AB007708AA002D08C1002C08C0002B08F3
:101D0000BF002A08BE008A117D278A157808AF0017
:101D10005E2264000800640083161F1383121F17DD
:101D20009F1783169F1383121F1483161F109F146F
:101D30001F119F111830F80083121F08C73978044B
:101D40009F000530D1008A1193208A151F151F1995
:101D5000A72E1E08BE003E08BF003E08AA3C03187E
:101D6000B32EA414B42EA4102030F8001F08C739D5
:101D700078049F000530D1008A1193208A151F1521
:101D80001F19C02E1E08BE003E08C0003E08AA3C17
:101D90000318CC2E2415CD2E241183161F149F1446
:101DA0001F159F1183121F1008000310310C23020E
:101DB000031DE72E31080139BF00C1001E30C200EB
:101DC000392222087802031DE72E0330A5000310F4
:101DD000320C2302031DF92E32080139BF00C10065
:101DE0001E30C200392222087802031DF92E02306B
:101DF000A5008A150A12BC2F20162008831687001A
:101E000000008312A01520088316870000008312AB
:101E10000712201220088316870000008312871102
:101E2000A011200883168700D0308312C2008A11C7
:101E300043218A15C2018A1143218A1520162008E0
:101E40008316870000008312A015200883168700E0
:101E500000008312871D2A2F0712201220088316E4
:101E60008700000083128711A011200883168700C5
:101E7000D1308312C2008A1143218A150130F70044
:101E80008A118D218A1578087F39BE00C2008A1117
:101E9000D2218A157808A1000130F7008A118D211E
:101EA0008A1578087F39BE00C2008A11D2218A15AE
:101EB0007808A200F7018A118D218A1578083F3928
:101EC000BE00C2008A11D2218A157808A300201210
:101ED00020088316870000008312A01520088316AF
:101EE00087008312871D722F0000762F00002016B6
:101EF000200883168700000002308312D1008A1167
:101F000093208A158A150A12D12F2F08273C031C0B
:101F1000922F2E08273C031C922F831688108312C1
:101F20008810962F83168810831288148316081140
:101F300083120811C0018A1179228A1508008401D0
:101F400083131F308305FF30A00083161F149F14D6
:101F50001F159F1107309C000A168A118312002852
:101F60000A128A158B26BD0A3D0FCF2FB80A8B2681
:101F700064009D256400D52EA41CC32F8316081170
:101F800083120815C72F8316081183120811380809
:101F90000339031DCF2FB901BA01BB01BC01640095
:101FA000FC2E64008A1186238A1564005E22640078
:101FB0000A168A114E2A0A128A156400B32F63008A
:102000000F30F70081018130840083130008F0391C
:102010000738800064000008F739F719F0397704B1
:102020008000831688138312881383160813831283
:10203000081383168812831288120F30D1000A12F7
:1020400093200A16BE013E08023C031C33280330CD
:10205000D8000A12A7200A160530D1000A129320D0
:102060000A16BE0A23280230D8000A12A7200A1630
:10207000BE013E08033C031C4A283E080A12042005
:102080000A16BF00D5013F08D6000A1206210A161B
:10209000BE0A3928BE0120162008831687000000DA
:1020A0008312A015200883168700000083120712F0
:1020B0002012200883168700000083128711A011C8
:1020C000200883168700D0308312C2000A124321F1
:1020D0000A16C2010A1243210A1620162008831686
:1020E000870000008312A0152008831687000000D7
:1020F0008312871D79280712201220088316870073
:10210000000083128711A011200883168700D130A8
:102110008312C2000A1243210A16F7010A128D2106
:102120000A167808BF00C2000A12D2210A167808DF
:10213000BE00201220088316870000008312A0151D
:102140002008831687008312871DA4280000A82872
:102150000000201620088316870000008312BE139B
:102160000430F700F70BB228B52820162008831694
:10217000870000008312A015200883168700000046
:102180008312071220122008831687000000831292
:102190008711A011200883168700D0308312C20057
:1021A0000A1243210A16C2010A1243210A163E08E6
:1021B000C1000A12E5210A167808BF00C2000A12FF
:1021C00043210A1620162008831687000000831278
:1021D000A01520088316870000008312871DEE28B3
:1021E000071220122008831687000000831287112F
:1021F000A011200883168700D0308312C2000A1273
:1022000043210A160730C2000A1243210A16803001
:10221000C2000A1243210A162012200883168700E2
:1022200000008312A0152008831687008312871DE3
:10223000172900001B29000020162008831687009C
:10224000000005308312D1000A1293200A160C30C8
:1022500003178D0000308F000A1203132E220A1676
:1022600083161F149F141F159F1183121F108316AE
:1022700009128312940183160108C73908388100B6
:10228000831290010030F800920000308316920013
:1022900007309C00050885001030F700F70B4E2929
:1022A00000001C0883120D13FE3083169D000515D7
:1022B0001430831203178D0083168C130C148312B1
:1022C0000C080313B10031082F3C0318692924308E
:1022D000B100163003178D0083168C130C14831273
:1022E0000C080313B20032082F3C031879290C3074
:1022F000B200183003178D0083168C130C14831250
:102300000C080313B3003308083C031C8A29B308E4
:10231000031D8C290830B3001A3003178D00831673
:102320008C130C1483120C080313B0003008123CF9
:10233000031C9E293008023C031CA0290D30B0006C
:102340000130A500B801A4102411B901BA01BB01E4
:10235000BC01B701C0010A1279220A162016200812
:102360008316870000008312A015200883168700BB
:102370000000831207122012200883168700000035
:1023800083128711A011200883168700D030831292
:10239000C2000A1243210A16C2010A1243210A1678
:1023A000201620088316870000008312A01520083D
:1023B0008316870000008312871DDC290712201274
:1023C000200883168700000083128711A0112008BF
:1023D00083168700D1308312C2000A1243210A16E5
:1023E0000130F7000A128D210A1678087F39BE00E5
:1023F000C2000A12D2210A167808A1000130F700A3
:102400000A128D210A1678087F39BE00C2000A120E
:10241000D2210A167808A200F7010A128D210A16A5
:1024200078083F39BE00C2000A12D2210A16780885
:10243000A300201220088316870000008312A01535
:102440002008831687008312871D242A0000282A6B
:102450000000201620088316870000000230831237
:10246000D1000A1293200A162308173C031C402AA5
:1024700022083B3C031C402A21083B3C0318462A07
:10248000BE01BF01C0010A1239230A160A128A15B9
:102490009D250A168A118A150A12B02F2F08563C5C
:1024A0000318562A2F08643C0318B90A2E08563C14
:1024B00003185E2A2E08643C0318BA0A3908023C45
:1024C000031C662A3A08023C03186D2A0A128A1570
:1024D00085270A168A110130B700241D762A0A12B0
:1024E0008A1585270A168A110230B7002F08643C26
:1024F000031C7D2A2F08033C0318BB0A2E08643CEA
:10250000031C852A2E08033C0318BC0A3B08023C26
:10251000031C8E2A3C08023C0318952A0A128A15CD
:1025200085270A168A110330B700B708031D832BCD
:102530002508033C031D7E2B2E082F07F7000310F0
:10254000770CBF002508033C031D742B6400300882
:10255000073C031DC52A2F08273C031CB82A2E0858
:10256000273C031CB82A8316881083128810BC2AC3
:102570008316881083128814831608118312081199
:10258000C0010A1279220A16732B8316881083124F
:1025900088143008C1000530C2000A128A15392299
:1025A0000A168A1178083F02031CDB2AC0010A12AE
:1025B00079220A16732B3008C1000530C2000A12B6
:1025C0008A1539220A168A113F087802BE003E0B8E
:1025D000EE2A0130C0000A1279220A163E08023C97
:1025E000031D012B3308013C0318FC2A0230C000F4
:1025F0000A1279220A16012B3308C0000A12792226
:102600000A163E08033C031D142B3308023C031832
:102610000F2B0330C0000A1279220A16142B33083C
:10262000C0000A1279220A163E08043C031D272B1B
:102630003308033C0318222B0430C0000A1279220D
:102640000A16272B3308C0000A1279220A163E0800
:10265000053C031D3A2B3308043C0318352B053089
:10266000C0000A1279220A163A2B3308C0000A1257
:1026700079220A163E08063C031D4D2B3308053C03
:102680000318482B0630C0000A1279220A164D2B77
:102690003308C0000A1279220A163E08073C031DBF
:1026A000602B3308063C03185B2B0730C0000A126E
:1026B00079220A16602B3308C0000A1279220A1602
:1026C0003E08073C0318732B3308073C03186E2B96
:1026D0000830C0000A1279220A16732B3308C00092
:1026E0000A1279220A16792B0A128A1585270A16E8
:1026F0008A118316881083128814832B0A128A1574
:0C27000085270A168A118A150A12DB2FA1
:02400E00763FFB
:00000001FF
;PIC16F877A
;CRC=2AEA  CREATED="23-may.-17 09:03"
